:100000000C944C010C947D010C947D010C947D01A9
:100010000C947D010C947D010C947D010C947D0168
:100020000C947D010C947D010C947D010C947D0158
:100030000C947D010C9462060C947D010C947D015E
:100040000C947D010C947D010C947D010C947D0138
:100050000C947D010C947D010C947D010C9461073E
:100060000C947D010C942B070C9401070C947D01DA
:100070000C947D010C947D010C947D010C947D0108
:100080000C947D010C947D010C947D010C947D01F8
:100090000C947D010C947D010C947D010C94AB07B4
:1000A0000C947D010C947D010C947D010C947D01D8
:1000B0000C947D010C947D010C947D010C947D01C8
:1000C0000C947D010C947D010C947D010C947D01B8
:1000D0000C947D010C947D010C947D010C947D01A8
:1000E0000C947D010C9471040C9481010C94E50234
:1000F0000C9417020C94DF010C9480010C94CF0532
:100100000C94AE010C945C060C94CF080C94FC0289
:100110000C9406030C94E1020C94BD010C94E802CB
:100120000C94EE020C94D3020C947F010C946104A5
:100130000C94F2020C9462040C940E030C948B0445
:100140000C94DD020C9484040C94D9020C940A03E0
:100150000C9418030C9414030C9464020C94000384
:100160000C94D1010C94F8020C9413030C94CE055A
:100170000C94B80400002100240027002A002D0060
:100180003000330001010000040107010A010000F2
:1001900020002300260029002C002F00320000013F
:1001A000000003010601090100000A0B02090C0D01
:1001B0000E0807030401000000000000000000001A
:1001C000000000000000000000000000000000002F
:1001D00000000000121110000000000000000000EC
:1001E000000000000000000000000000000001020C
:1001F0001020200808102040102040800201020139
:1002000008040201010204081020408080402010F0
:100210000804020180040201804020100804020149
:1002200008040201010204081020408001020408B1
:100230001020408000002200250028002B002E0006
:100240003100340002010000050108010B01050521
:100250000505070508080808020202020A0A08083C
:10026000040404040101010101010101030303036A
:1002700003030303040707070C0C0C0C0C0C0C0CF9
:100280000202020206060606060606060B0B0B0B0A
:100290000B0B0B0B0200CF0811241FBECFEFD1E2D6
:1002A000DEBFCDBF00E00CBF12E0A0E0B2E0EAE7A5
:1002B000F8E100E00BBF02C007900D92A235B10734
:1002C000D9F723E0A2E5B2E001C01D92AA3EB20731
:1002D000E1F711E0CCE4D1E000E006C0219701098C
:1002E000802FFE010E94330CCB34D10780E0080739
:1002F000A9F70E9417090C943B0C0C940000089578
:100300000895AF92BF92CF92DF92EF92FF920F9338
:100310001F93CF93DF936C017B018B01040F151F9B
:10032000EB015E01AE18BF08C017D10759F0699103
:10033000D601ED91FC910190F081E02DC601199557
:10034000892B79F7C501DF91CF911F910F91FF9014
:10035000EF90DF90CF90BF90AF900895FC01538D48
:10036000448D252F30E0842F90E0821B930B54178F
:1003700010F0CF96089501970895FC01918D828D1C
:10038000981761F0A28DAE0FBF2FB11D5D968C91B5
:10039000928D9F5F9F73928F90E008958FEF9FEFF4
:1003A0000895FC01918D828D981731F0828DE80FB0
:1003B000F11D858D90E008958FEF9FEF0895FC016A
:1003C000918D228D892F90E0805C9F4F821B910937
:1003D0008F739927089585E393E00E94DF0121E060
:1003E000892B09F420E0822F0895FC01A48DA80F29
:1003F000B92FB11DA35ABF4F2C91848D90E0019667
:100400008F739927848FA689B7892C93A089B18986
:100410008C91837080648C93938D848D981306C027
:100420000288F389E02D80818F7D80830895EF928B
:10043000FF920F931F93CF93DF93EC0181E0888F9E
:100440009B8D8C8D98131AC0E889F989808185FF6E
:1004500015C09FB7F894EE89FF896083E889F98910
:1004600080818370806480839FBF81E090E0DF9112
:10047000CF911F910F91FF90EF900895F62E0B8D65
:1004800010E00F5F1F4F0F731127E02E8C8D8E1120
:100490000CC00FB607FCFACFE889F989808185FF87
:1004A000F5CFCE010E94F501F1CFEB8DEC0FFD2FC2
:1004B000F11DE35AFF4FF0829FB7F8940B8FEA8942
:1004C000FB8980818062CFCFCF93DF93EC01888D51
:1004D0008823B9F0AA89BB89E889F9898C9185FDBF
:1004E00003C0808186FD0DC00FB607FCF7CF8C914D
:1004F00085FFF2CF808185FFEDCFCE010E94F5010F
:10050000E9CFDF91CF91089580E090E0892B29F029
:100510000E94EB0181110E94000080E090E0892B95
:1005200049F080E090E0892B29F00E9400008111C1
:100530000E94000080E090E0892B49F080E090E08C
:10054000892B29F00E94000081110E94000080E0A8
:1005500090E0892B49F080E090E0892B29F00E94FF
:10056000000081110C94000008958150823108F040
:100570005AC0E82FF0E08827EF53FD4F8F4F0C94BF
:10058000330CE102E502D302D902DD021303E802D3
:10059000EE02F202F802FC02000306030A03130350
:1005A0000E0314031803809180008F7780938000DE
:1005B0000895809180008F7DF9CF80918000877FA2
:1005C000F5CF84B58F7784BD089584B58F7DFBCF3B
:1005D0008091B0008F778093B00008958091B00033
:1005E0008F7DF9CF809190008F7780939000089550
:1005F000809190008F7DF9CF80919000877FF5CF1B
:100600008091A0008F778093A00008958091A00032
:100610008F7DF9CF8091A000877FF5CF8091200159
:100620008F77809320010895809120018F7DF9CFED
:1006300080912001877FF5CFCF93DF93282F30E083
:10064000F901E855FE4F8491F901E251FE4FD49132
:10065000F901E25BFD4FC491CC23A1F081110E940E
:10066000B502EC2FF0E0EE0FFF1FE257FE4FA59111
:10067000B491EC91ED2381E090E009F480E0DF910A
:10068000CF91089580E090E0FACF1F93CF93DF934E
:10069000282F30E0F901E855FE4F8491F901E2512D
:1006A000FE4FD491F901E25BFD4FC491CC23A9F038
:1006B000162F81110E94B502EC2FF0E0EE0FFF1F04
:1006C000EC5CFD4FA591B4918FB7F894EC911111AA
:1006D00008C0D095DE23DC938FBFDF91CF911F91AF
:1006E0000895DE2BF8CFCF93DF9390E0FC01E25129
:1006F000FE4F2491825B9D4FFC0184918823D1F0B1
:1007000090E0880F991FFC01EC58FE4FA591B49121
:10071000FC01EC5CFD4FC591D49161110EC09FB7F7
:10072000F8948C91E22FE0958E238C932881E2231C
:10073000E8839FBFDF91CF9108958FB7F894EC9134
:10074000E22BEC938FBFF6CF3FB7F894809109036B
:1007500090910A03A0910B03B0910C0326B5A89BBE
:1007600005C02F3F19F00196A11DB11D3FBFBA2F43
:10077000A92F982F8827BC01CD01620F711D811D03
:10078000911D42E0660F771F881F991F4A95D1F788
:1007900008958F929F92AF92BF92CF92DF92EF9285
:1007A000FF924B015C010E94A4036B017C010E943B
:1007B000A4036C197D098E099F09683E7340810569
:1007C0009105A8F321E0821A9108A108B10888EEEA
:1007D000C80E83E0D81EE11CF11C81149104A10411
:1007E000B10429F7FF90EF90DF90CF90BF90AF90CA
:1007F0009F908F9008952091BA02260F3327331FC0
:1008000021323105ECF42091DE02FC0190E080E021
:10081000243069F082E00895A091BA022191AC01E0
:1008200046565D4FA40FB52FB11D2C930196861728
:1008300098F38091BA02680F6093BA0280E008953D
:1008400081E008951092DE0281E08093E002109230
:10085000DF0261E084E10E94450361E085E10E94DE
:100860004503E9EBF0E080818E7F808380818D7F7E
:10087000808388E48093B80085E48093BC00089569
:10088000CF93DF9391E0909399028823B9F0C091C0
:10089000B800D091BA008091BC008A7B8093BC00E4
:1008A00060E084E10E94450360E085E10E94450329
:1008B0000E942204D093BA00C093B800DF91CF9178
:1008C00008950895E091140380911303E81730F41C
:1008D000F0E0EC58FD4F808190E008958FEF9FEF9E
:1008E000089590911403809113032FEF3FEF981711
:1008F00048F4E92FF0E0EC58FD4F208130E09F5F95
:1009000090931403C90108958091130390911403E7
:10091000891B990B0895CF92DF92EF92FF920F936C
:100920001F93CF93DF937C01CB018A012091730247
:10093000222389F0EB016B01C40ED51ECC15DD0519
:1009400069F06991D701ED91FC910190F081E02D62
:10095000C7011995F3CF642F0E94FB03C801DF91F3
:10096000CF911F910F91FF90EF90DF90CF9008955E
:10097000CF93DF931F92CDB7DEB7698320917302C7
:100980002223F9F020911103203258F021E030E0C9
:10099000FC013383228390E080E00F90DF91CF91C0
:1009A000089580911203E82FF0E0ED5AFD4F9981F0
:1009B00090838F5F809312038093110381E090E016
:1009C000ECCF61E0CE0101960E94FB03F7CFCF92FE
:1009D000DF92EF92FF920F931F93CF93DF93FC016F
:1009E000C48121E020937302C0935202109212033B
:1009F000109211038385682B82ED93E00E94B80466
:100A0000D0911103D13208F092C00E94A4036B016F
:100A10007C018091DE02811165C082E08093DE025C
:100A200081E08093E0028FEF8093DD021092020359
:100A3000D0930103A3E5B2E0E1EEF2E080E0D81349
:100A400085C01092030380910303CC0FC82BC09381
:100A500003038091DF02813009F07CC01092DF0235
:100A60000E94A4036B017C01809103038093BB006F
:100A70008091950290919602A0919702B091980270
:100A8000892B8A2B8B2B99F00E94A403009195024D
:100A90001091960220919702309198026C197D096D
:100AA0008E099F090617170728073907E0F180917B
:100AB000BC0083FDD9CF85EC8093BC000E94A403C9
:100AC0006B017C018091DE02823009F445C0809187
:100AD000DD028F3F61F18091DD02803241F1809132
:100AE000DD0225C08091950290919602A091970217
:100AF000B0919802892B8A2B8B2B09F48ACF0E9404
:100B0000A4030091950210919602209197023091D2
:100B100098026C197D098E099F0906171707280787
:100B2000390708F076CF809194020E944004109219
:100B300012031092110310927302DF91CF911F9153
:100B40000F91FF90EF90DF90CF9008959D9191933A
:100B50008F5F75CF85EEB0CF809195029091960210
:100B6000A0919702B0919802892B8A2B8B2B09F4C4
:100B7000A9CF0E94A40300919502109196022091A2
:100B80009702309198026C197D098E099F0906170A
:100B900017072807390708F095CFC5CF089590E0CB
:100BA00080E00895FB0101900020E9F73197AF0143
:100BB000461B570BDC01ED91FC910280F381E02D87
:100BC0001994CF93DF93BC0185E393E00E94D20593
:100BD000EC0161E372E085E393E00E94D2058C0FA3
:100BE0009D1FDF91CF91089585ED8093BC0080918A
:100BF000950290919602A0919702B0919802079663
:100C0000A11DB11D23E0B695A795979587952A95C7
:100C1000D1F72091BC0024FD03C01092DE0208959C
:100C200040919502509196026091970270919802BE
:100C3000452B462B472B69F30097A105B10541F0E1
:100C400025E32A95F1F700000197A109B109E1CF49
:100C5000809194020C9440040F931F93CF938C01C6
:100C6000C62F0E94E7046C2F6460C8010E94E7044D
:100C70006C2F6B7FC8010E94E70483EC90E0019722
:100C8000F1F7CF911F910F9108950F931F93CF9379
:100C9000DF938C01D62FC42F607F642B0E942C061B
:100CA00080E1D89FB00111246C2BC801DF91CF9156
:100CB0001F910F910C942C0641E00E94450681E0A3
:100CC00090E008951F920F920FB60F9211240BB669
:100CD0000F922F933F934F935F936F937F938F93D5
:100CE0009F93AF93BF93EF93FF93809129039091CC
:100CF0002A03A0912B03B0912C03892B8A2B8B2BD9
:100D0000E1F190911803E0911903F0911A038081A9
:100D1000892780838091290390912A03A0912B0336
:100D2000B0912C03181619061A061B069CF4809124
:100D3000290390912A03A0912B03B0912C030197D2
:100D4000A109B1098093290390932A03A0932B034F
:100D5000B0932C03FF91EF91BF91AF919F918F9131
:100D60007F916F915F914F913F912F910F900BBEAB
:100D70000F900FBE0F901F90189580910002E4E92C
:100D8000F2E0E4919FEF90930002E230E9F040F44A
:100D9000EE2389F0E13091F060E00E944503DACF64
:100DA000E43049F110F1E530B9F7909173009D7F7F
:100DB00090937300F1CF10926E00EECF90916F0080
:100DC0009D7F90936F00E8CF909170009D7F9093EE
:100DD000700091E09093B0009091B100987F946082
:100DE0009093B1001092B300D7CF909171009D7F86
:100DF00090937100D1CF909172009D7F909372007B
:100E0000CBCF1F920F920FB60F9211240BB60F92F9
:100E10002F933F934F935F936F937F938F939F9302
:100E2000AF93BF93EF93FF9385E393E00E94F501A7
:100E3000FF91EF91BF91AF919F918F917F916F91B2
:100E40005F914F913F912F910F900BBE0F900FBE6E
:100E50000F901F9018951F920F920FB60F921124AA
:100E60000BB60F922F938F939F93EF93FF93E09185
:100E70004503F09146038081E0914B03F0914C03D0
:100E800082FD1DC0908180914E038F5F8F732091F2
:100E90004F03821741F0E0914E03F0E0EB5CFC4F12
:100EA000958F80934E03FF91EF919F918F912F919A
:100EB0000F900BBE0F900FBE0F901F901895808162
:100EC000F2CF1F920F920FB60F9211242F933F93E0
:100ED0008F939F93AF93BF938091050390910603E7
:100EE000A0910703B09108033091040323E0230F7E
:100EF0002D3758F50196A11DB11D20930403809351
:100F0000050390930603A0930703B0930803809111
:100F1000090390910A03A0910B03B0910C03019671
:100F2000A11DB11D8093090390930A03A0930B03A5
:100F3000B0930C03BF91AF919F918F913F912F91EF
:100F40000F900FBE0F901F90189526E8230F029662
:100F5000A11DB11DD2CF1F920F920FB60F92112477
:100F60000BB60F922F933F934F935F936F937F93A3
:100F70008F939F93AF93BF93EF93FF938091B900AB
:100F8000887F803609F44DC008F040C0883209F4EB
:100F9000A9C028F5803109F49DC0C8F4882309F45C
:100FA000FBC0883009F496C0FF91EF91BF91AF91DB
:100FB0009F918F917F916F915F914F913F912F9171
:100FC0000F900BBE0F900FBE0F901F901895883199
:100FD00009F488C0803241F78093DD0214C0803468
:100FE00009F49DC040F48033B9F38833E9F6809367
:100FF000DD0285ECB0C0803509F485C0883509F480
:1010000096C0883489F60E94F405CECF883909F459
:101010008CC038F5883729F050F4883611F08037C5
:1010200019F683E08093DE021092DC0257C0883804
:1010300009F47BC0803919F0803809F0B5CF809170
:10104000DC02803208F071C0E091DC0281E08E0F9A
:101050008093DC028091BB00F0E0E454FD4F80837C
:101060003DC0803B39F0E0F4803A09F479C0883A19
:1010700009F09ACF84E08093DE021092BB021092B6
:10108000BA02E0910F03F091100319958091BA0212
:1010900081110FC081E08093BA0210929A0209C0B8
:1010A000803C09F4A6CF883C09F4A3CF883B09F023
:1010B0007BCFE091BB0281E08E0F8093BB02F0E01A
:1010C000E656FD4F80818093BB009091BB028091DA
:1010D000BA0229C0809103038093BB0085EC809302
:1010E000BC0062CF9091020380910103981758F5DC
:1010F000E091020381E08E0F80930203F0E0EF5154
:10110000FD4F8081E9CFE091020381E08E0F809353
:1011100002038091BB00F0E0EF51FD4F808390917E
:101120000203809101039817C8F285E8D8CFE091B7
:10113000020381E08E0F809302038091BB00F0E0F8
:10114000EF51FD4F80838091E00281115CCF81E0FF
:101150008093DF0284EA8093BC001092DE0224CFE9
:1011600085EC8093BC001092DE028091DC0280321C
:1011700030F4E091DC02F0E0E454FD4F1082609125
:10118000DC0270E0E0910D03F0910E038CEB92E035
:1011900019951092DC0208CF1092DD0234CFE5E3FE
:1011A000F3E01382128288EE93E0A0E0B0E0848343
:1011B0009583A683B78325E032E03183208325EC35
:1011C00030E03587248724EC30E03787268720EC11
:1011D00030E0318B208B21EC30E0338B228B22EC02
:1011E00030E0358B248B26EC30E0378B268B118E4C
:1011F000128E138E148EE2EDF3E01382128284833A
:101200009583A683B78387E192E091838083EEED97
:10121000F3E01382128289E292E09183808380E27C
:10122000848380E1818782E08287138608957894A1
:1012300084B5826084BD84B5816084BD85B58260DB
:1012400085BD85B5816085BD80916E00816080938C
:101250006E001092810080918100826080938100F5
:101260008091810081608093810080918000816005
:10127000809380008091B10084608093B100809160
:10128000B00081608093B000809191008260809373
:1012900091008091910081608093910080919000F5
:1012A0008160809390008091A10082608093A10072
:1012B0008091A10081608093A1008091A000816055
:1012C0008093A00080912101826080932101809110
:1012D00021018160809321018091200181608093B0
:1012E000200180917A00846080937A0080917A0056
:1012F000826080937A0080917A00816080937A0086
:1013000080917A00806880937A001092C10060E03A
:101310008DE00E94730360E086E00E94730360E04A
:1013200085E00E94730360E084E00E9473031092E2
:1013300014031092130310921203109211030E94CF
:1013400022048FE791E09093100380930F0380E8CD
:1013500091E090930E0380930D031092E30380912C
:10136000E803823018F098E09093E3038093E6035B
:1013700062E370E080E090E00E94C9036091E903BD
:101380008EED93E00E94E70468EE73E080E090E069
:101390000E94C90360E38EED93E00E942C060BE4EB
:1013A00016E4C8010197F1F760E38EED93E00E9427
:1013B0002C06C8010197F1F760E38EED93E00E94DF
:1013C0002C0683E592E00197F1F760E28EED93E061
:1013D0000E942C066091E303606240E08EED93E092
:1013E0000E94450684E08093E40340E06CE08EEDCB
:1013F00093E00E94450640E061E08EED93E00E949C
:1014000045060BE31FE1C8010197F1F7C2E0C09365
:10141000E50340E066E08EED93E00E94450640E083
:1014200062E08EED93E00E944506C8010197F1F756
:1014300040E061E08EED93E00E944506C80101970F
:10144000F1F7E0914503F0914603C083E091410339
:10145000F09142031082E0914303F09144038FEC3A
:10146000808310924D03E0914903F0914A0386E096
:101470008083E0914703F0914803808180618083FD
:10148000E0914703F0914803808188608083E09178
:101490004703F0914803808180688083E09147038F
:1014A000F091480380818F7D80836AE0462E62E060
:1014B000562E612C712C7AEBC72E77E7D72EE4E9F4
:1014C000AE2EE2E0BE2E0AE512E0FAEFEF2EF1E0DA
:1014D000FF2E809100028C3029F5F501C491C7FDE3
:1014E00075C161E08CE00E947303CC2309F4EAC06B
:1014F000C23009F0FBC08091B100887F8560809385
:10150000B1008EEE8093B3004092290350922A03DB
:1015100060922B0370922C03809170008260809304
:10152000700054C18F3F09F051C18CE080930002DC
:10153000F501C4918C2FCF3F09F448C1C23009F4A2
:1015400065C060F4CC2371F1C13009F442C087FD5D
:101550003DC161E08CE00E947303CACFC43009F43E
:1015600094C008F474C0C53091F710922001109215
:1015700021018091210188608093210180912101C6
:10158000816080932101F8018491E82FF0E0EE0F53
:10159000FF1FEC5CFD4F85919491F701849180933E
:1015A00015039FCF14BC15BC84B5826084BD85B57E
:1015B000816085BDF8018491E82FF0E0EE0FFF1FF8
:1015C000EC5CFD4F85919491F701849180931C030D
:1015D00088CF1092800010928100809181008860F5
:1015E0008093810080918100816080938100F80167
:1015F0008491E82FF0E0EE0FFF1FEC5CFD4F85912A
:101600009491F701849180931B036BCF1092B000EB
:101610001092B1008091B00082608093B000809100
:10162000B10081608093B100F8018491E82FF0E06F
:10163000EE0FFF1FEC5CFD4F8591949190931A0380
:1016400080931903F7018491809318034ACF109275
:101650009000109291008091910088608093910099
:1016600080919100816080939100F8018491E82F2E
:10167000F0E0EE0FFF1FEC5CFD4F85919491F701B8
:10168000849180931703C3E02CCF1092A000109296
:10169000A1008091A10088608093A1008091A100A9
:1016A00081608093A100F8018491E82FF0E0EE0FB3
:1016B000FF1FEC5CFD4F85919491F701849180931D
:1016C00016030FCF85B5887F846085BD86E787BD0B
:1016D000409231035092320360923303709234038C
:1016E00080916E00826080936E0070C0C130C1F442
:1016F00080918100887F816080938100D0928900F1
:10170000C092880040922D0350922E0360922F03C6
:101710007092300380916F00826080936F0056C09A
:10172000C330C1F480919100887F816080939100E3
:10173000D0929900C09298004092250350922603BF
:1017400060922703709228038091710082608093D9
:1017500071003CC0C430C1F48091A100887F8160D9
:101760008093A100D092A900C092A80040922103CA
:10177000509222036092230370922403809172009E
:1017800082608093720022C0C530C1F48091210133
:10179000887F816080932101D0922901C092280125
:1017A00040921D0350921E0360921F03709220030B
:1017B0008091730082608093730008C0C23041F151
:1017C000ECF4CC2319F1C13009F498CF68EE73E042
:1017D00080E090E00E94C9038DE00E941C03019705
:1017E000C9F484E392E00E94E10568EE73E080E0D2
:1017F00090E00E94C9030E9484026BCEC43009F4B9
:10180000B1CF0CF495CFC53009F7C6CF8AEB5FCFC7
:101810008AEB78CE86E00E941C03019719F489E3D5
:1018200092E0E1CF85E00E941C03019719F48FE359
:1018300092E0D9CF84E00E941C03019719F484E45C
:1018400092E0D1CF89E492E00E94E10540E065E8B2
:101850008EED93E00E94450669E472E08EED93E020
:101860000E94D205C2CFEE0FFF1F881F8BBF0790CB
:0A187000F691E02D1994F894FFCFD3
:10187A00FF0000000017028101AE016402DF01BD12
:10188A0001D10100000000B8048B04CF0561048473
:10189A000471046204000000005C068101CF05CED9
:1018AA00050D0A00504C4159005041555345004E10
:1018BA004558540050524556004150414741444F03
:0218CA0000001C
:00000001FF
